{
  "contractName": "Manufacturer",
  "abi": [
    {
      "inputs": [],
      "stateMutability": "nonpayable",
      "type": "constructor"
    },
    {
      "anonymous": false,
      "inputs": [
        {
          "indexed": true,
          "internalType": "address",
          "name": "account",
          "type": "address"
        }
      ],
      "name": "ManufacturerAdded",
      "type": "event"
    },
    {
      "anonymous": false,
      "inputs": [
        {
          "indexed": true,
          "internalType": "address",
          "name": "account",
          "type": "address"
        }
      ],
      "name": "ManufacturerRemoved",
      "type": "event"
    },
    {
      "inputs": [
        {
          "internalType": "address",
          "name": "account",
          "type": "address"
        }
      ],
      "name": "isManufacturer",
      "outputs": [
        {
          "internalType": "bool",
          "name": "",
          "type": "bool"
        }
      ],
      "stateMutability": "view",
      "type": "function"
    },
    {
      "inputs": [
        {
          "internalType": "address",
          "name": "account",
          "type": "address"
        }
      ],
      "name": "addManufacturer",
      "outputs": [],
      "stateMutability": "nonpayable",
      "type": "function"
    },
    {
      "inputs": [],
      "name": "renounceManufacturer",
      "outputs": [],
      "stateMutability": "nonpayable",
      "type": "function"
    }
  ],
  "bytecode": "0x608060405234801561001057600080fd5b5061001a3361001f565b6100ef565b61003781600061006e60201b6100f01790919060201c565b6040516001600160a01b038216907f561138658ca49a8540dc70dcfe64c9026c1c5b9344642242dd6562970f9c127890600090a250565b6001600160a01b03811661008157600080fd5b61008b82826100ba565b1561009557600080fd5b6001600160a01b0316600090815260209190915260409020805460ff19166001179055565b60006001600160a01b0382166100cf57600080fd5b506001600160a01b03166000908152602091909152604090205460ff1690565b6102f6806100fe6000396000f3fe608060405234801561001057600080fd5b50600436106100415760003560e01c806317d4a491146100465780635f8a5afa1461006f578063de07f34e14610084575b600080fd5b61005961005436600461023d565b61008c565b604051610066919061026b565b60405180910390f35b61008261007d36600461023d565b61009e565b005b6100826100e5565b6000610098818361013c565b92915050565b6100a73361008c565b6100cc5760405162461bcd60e51b81526004016100c390610276565b60405180910390fd5b6100d58161008c565b6100e2576100e281610171565b50565b6100ee336101b3565b565b6001600160a01b03811661010357600080fd5b61010d828261013c565b1561011757600080fd5b6001600160a01b0316600090815260209190915260409020805460ff19166001179055565b60006001600160a01b03821661015157600080fd5b506001600160a01b03166000908152602091909152604090205460ff1690565b61017c6000826100f0565b6040516001600160a01b038216907f561138658ca49a8540dc70dcfe64c9026c1c5b9344642242dd6562970f9c127890600090a250565b6101be6000826101f5565b6040516001600160a01b038216907f2fed5abf6a80d6dfe30b4895481b2fc5d7dce5f8f7b931832f4a2947d5040c7f90600090a250565b6001600160a01b03811661020857600080fd5b610212828261013c565b61021b57600080fd5b6001600160a01b0316600090815260209190915260409020805460ff19169055565b60006020828403121561024e578081fd5b81356001600160a01b0381168114610264578182fd5b9392505050565b901515815260200190565b6020808252602a908201527f53656e64657220646f65736e2774206861766520746865206d616e75666163746040820152693ab932b9103937b6329760b11b60608201526080019056fea2646970667358221220d037475e43e28d6b1b540675ce79521623f6184af0f572511ca2d1cfb52ea9c164736f6c63430008000033",
  "immutableReferences": {},
  "source": "// SPDX-License-Identifier: UNLICENSED\npragma solidity >=0.4.22 <0.9.0;\n\nimport \"./Roles.sol\";\n\ncontract Manufacturer {\n    using Roles for Roles.Role;\n\n    event ManufacturerAdded(address indexed account);\n    event ManufacturerRemoved(address indexed account);\n\n    Roles.Role private manufacturers;\n\n    constructor() {\n        _addManufacturer(msg.sender);\n    }\n\n    function _addManufacturer(address account) internal {\n        manufacturers.add(account);\n        emit ManufacturerAdded(account);\n    }\n\n    function _removeManufacturer(address account) internal {\n        manufacturers.remove(account);\n        emit ManufacturerRemoved(account);\n    }\n\n    function isManufacturer(address account) public view returns (bool) {\n        return manufacturers.has(account);\n    }\n\n    modifier onlyManufacturer() {\n        require(isManufacturer(msg.sender), \"Sender doesn't have the manufacturer role.\");\n        _;\n    }\n\n    function addManufacturer(address account) public onlyManufacturer {\n        if (!isManufacturer(account))\n            _addManufacturer(account);\n    }\n\n    function renounceManufacturer() public {\n        _removeManufacturer(msg.sender);\n    }\n}\n",
  "sourcePath": "/Users/avinashbejjam/Desktop/MU_Sem/4_1/Crypto/Project/DApp-Supply-Chain/contracts/roles/Manufacturer.sol",
  "compiler": {
    "name": "solc",
    "version": "0.8.0+commit.c7dfd78e.Emscripten.clang"
  },
  "schemaVersion": "3.4.16",
  "updatedAt": "2024-12-02T13:55:24.972Z",
  "devdoc": {
    "kind": "dev",
    "methods": {},
    "version": 1
  },
  "userdoc": {
    "kind": "user",
    "methods": {},
    "version": 1
  }
}