{
  "contractName": "SupplyChain",
  "abi": [
    {
      "inputs": [],
      "stateMutability": "payable",
      "type": "constructor",
      "payable": true
    },
    {
      "anonymous": false,
      "inputs": [
        {
          "indexed": false,
          "internalType": "address",
          "name": "account",
          "type": "address"
        }
      ],
      "name": "ConsumerAdded",
      "type": "event"
    },
    {
      "anonymous": false,
      "inputs": [
        {
          "indexed": false,
          "internalType": "address",
          "name": "account",
          "type": "address"
        }
      ],
      "name": "ConsumerRemoved",
      "type": "event"
    },
    {
      "anonymous": false,
      "inputs": [
        {
          "indexed": true,
          "internalType": "address",
          "name": "account",
          "type": "address"
        }
      ],
      "name": "DistributorAdded",
      "type": "event"
    },
    {
      "anonymous": false,
      "inputs": [
        {
          "indexed": true,
          "internalType": "address",
          "name": "account",
          "type": "address"
        }
      ],
      "name": "DistributorRemoved",
      "type": "event"
    },
    {
      "anonymous": false,
      "inputs": [
        {
          "indexed": false,
          "internalType": "uint256",
          "name": "upc",
          "type": "uint256"
        }
      ],
      "name": "ForSale",
      "type": "event"
    },
    {
      "anonymous": false,
      "inputs": [
        {
          "indexed": false,
          "internalType": "uint256",
          "name": "upc",
          "type": "uint256"
        }
      ],
      "name": "Manufactured",
      "type": "event"
    },
    {
      "anonymous": false,
      "inputs": [
        {
          "indexed": true,
          "internalType": "address",
          "name": "account",
          "type": "address"
        }
      ],
      "name": "ManufacturerAdded",
      "type": "event"
    },
    {
      "anonymous": false,
      "inputs": [
        {
          "indexed": true,
          "internalType": "address",
          "name": "account",
          "type": "address"
        }
      ],
      "name": "ManufacturerRemoved",
      "type": "event"
    },
    {
      "anonymous": false,
      "inputs": [
        {
          "indexed": false,
          "internalType": "uint256",
          "name": "upc",
          "type": "uint256"
        }
      ],
      "name": "Packed",
      "type": "event"
    },
    {
      "anonymous": false,
      "inputs": [
        {
          "indexed": false,
          "internalType": "uint256",
          "name": "upc",
          "type": "uint256"
        }
      ],
      "name": "Purchased",
      "type": "event"
    },
    {
      "anonymous": false,
      "inputs": [
        {
          "indexed": false,
          "internalType": "uint256",
          "name": "upc",
          "type": "uint256"
        }
      ],
      "name": "Received",
      "type": "event"
    },
    {
      "anonymous": false,
      "inputs": [
        {
          "indexed": true,
          "internalType": "address",
          "name": "account",
          "type": "address"
        }
      ],
      "name": "RetailerAdded",
      "type": "event"
    },
    {
      "anonymous": false,
      "inputs": [
        {
          "indexed": true,
          "internalType": "address",
          "name": "account",
          "type": "address"
        }
      ],
      "name": "RetailerRemoved",
      "type": "event"
    },
    {
      "anonymous": false,
      "inputs": [
        {
          "indexed": false,
          "internalType": "uint256",
          "name": "upc",
          "type": "uint256"
        }
      ],
      "name": "Shipped",
      "type": "event"
    },
    {
      "anonymous": false,
      "inputs": [
        {
          "indexed": false,
          "internalType": "uint256",
          "name": "upc",
          "type": "uint256"
        }
      ],
      "name": "Sold",
      "type": "event"
    },
    {
      "anonymous": false,
      "inputs": [
        {
          "indexed": true,
          "internalType": "address",
          "name": "oldOwner",
          "type": "address"
        },
        {
          "indexed": true,
          "internalType": "address",
          "name": "newOwner",
          "type": "address"
        }
      ],
      "name": "TransferOwnership",
      "type": "event"
    },
    {
      "inputs": [
        {
          "internalType": "address",
          "name": "account",
          "type": "address"
        }
      ],
      "name": "addConsumer",
      "outputs": [],
      "stateMutability": "nonpayable",
      "type": "function"
    },
    {
      "inputs": [
        {
          "internalType": "address",
          "name": "account",
          "type": "address"
        }
      ],
      "name": "addDistributor",
      "outputs": [],
      "stateMutability": "nonpayable",
      "type": "function"
    },
    {
      "inputs": [
        {
          "internalType": "address",
          "name": "account",
          "type": "address"
        }
      ],
      "name": "addManufacturer",
      "outputs": [],
      "stateMutability": "nonpayable",
      "type": "function"
    },
    {
      "inputs": [
        {
          "internalType": "address",
          "name": "account",
          "type": "address"
        }
      ],
      "name": "addRetailer",
      "outputs": [],
      "stateMutability": "nonpayable",
      "type": "function"
    },
    {
      "inputs": [
        {
          "internalType": "address",
          "name": "account",
          "type": "address"
        }
      ],
      "name": "isConsumer",
      "outputs": [
        {
          "internalType": "bool",
          "name": "",
          "type": "bool"
        }
      ],
      "stateMutability": "view",
      "type": "function",
      "constant": true
    },
    {
      "inputs": [
        {
          "internalType": "address",
          "name": "account",
          "type": "address"
        }
      ],
      "name": "isDistributor",
      "outputs": [
        {
          "internalType": "bool",
          "name": "",
          "type": "bool"
        }
      ],
      "stateMutability": "view",
      "type": "function",
      "constant": true
    },
    {
      "inputs": [
        {
          "internalType": "address",
          "name": "account",
          "type": "address"
        }
      ],
      "name": "isManufacturer",
      "outputs": [
        {
          "internalType": "bool",
          "name": "",
          "type": "bool"
        }
      ],
      "stateMutability": "view",
      "type": "function",
      "constant": true
    },
    {
      "inputs": [],
      "name": "isOwner",
      "outputs": [
        {
          "internalType": "bool",
          "name": "",
          "type": "bool"
        }
      ],
      "stateMutability": "view",
      "type": "function",
      "constant": true
    },
    {
      "inputs": [
        {
          "internalType": "address",
          "name": "account",
          "type": "address"
        }
      ],
      "name": "isRetailer",
      "outputs": [
        {
          "internalType": "bool",
          "name": "",
          "type": "bool"
        }
      ],
      "stateMutability": "view",
      "type": "function",
      "constant": true
    },
    {
      "inputs": [],
      "name": "owner",
      "outputs": [
        {
          "internalType": "address",
          "name": "",
          "type": "address"
        }
      ],
      "stateMutability": "view",
      "type": "function",
      "constant": true
    },
    {
      "inputs": [],
      "name": "renounceConsumer",
      "outputs": [],
      "stateMutability": "nonpayable",
      "type": "function"
    },
    {
      "inputs": [],
      "name": "renounceDistributor",
      "outputs": [],
      "stateMutability": "nonpayable",
      "type": "function"
    },
    {
      "inputs": [],
      "name": "renounceManufacturer",
      "outputs": [],
      "stateMutability": "nonpayable",
      "type": "function"
    },
    {
      "inputs": [],
      "name": "renounceOwnership",
      "outputs": [],
      "stateMutability": "nonpayable",
      "type": "function"
    },
    {
      "inputs": [],
      "name": "renounceRetailer",
      "outputs": [],
      "stateMutability": "nonpayable",
      "type": "function"
    },
    {
      "inputs": [
        {
          "internalType": "address",
          "name": "newOwner",
          "type": "address"
        }
      ],
      "name": "transferOwnership",
      "outputs": [],
      "stateMutability": "nonpayable",
      "type": "function"
    },
    {
      "inputs": [],
      "name": "kill",
      "outputs": [],
      "stateMutability": "nonpayable",
      "type": "function"
    },
    {
      "inputs": [
        {
          "internalType": "uint256",
          "name": "_upc",
          "type": "uint256"
        },
        {
          "internalType": "string",
          "name": "_name",
          "type": "string"
        },
        {
          "internalType": "string",
          "name": "_description",
          "type": "string"
        },
        {
          "internalType": "uint256",
          "name": "_price",
          "type": "uint256"
        }
      ],
      "name": "manufactureItem",
      "outputs": [],
      "stateMutability": "nonpayable",
      "type": "function"
    },
    {
      "inputs": [
        {
          "internalType": "uint256",
          "name": "_upc",
          "type": "uint256"
        }
      ],
      "name": "packItem",
      "outputs": [],
      "stateMutability": "nonpayable",
      "type": "function"
    },
    {
      "inputs": [
        {
          "internalType": "uint256",
          "name": "_upc",
          "type": "uint256"
        },
        {
          "internalType": "uint256",
          "name": "_price",
          "type": "uint256"
        }
      ],
      "name": "sellItem",
      "outputs": [],
      "stateMutability": "nonpayable",
      "type": "function"
    },
    {
      "inputs": [
        {
          "internalType": "uint256",
          "name": "_upc",
          "type": "uint256"
        }
      ],
      "name": "buyItem",
      "outputs": [],
      "stateMutability": "payable",
      "type": "function",
      "payable": true
    },
    {
      "inputs": [
        {
          "internalType": "uint256",
          "name": "_upc",
          "type": "uint256"
        }
      ],
      "name": "shipItem",
      "outputs": [],
      "stateMutability": "nonpayable",
      "type": "function"
    },
    {
      "inputs": [
        {
          "internalType": "uint256",
          "name": "_upc",
          "type": "uint256"
        }
      ],
      "name": "receiveItem",
      "outputs": [],
      "stateMutability": "nonpayable",
      "type": "function"
    },
    {
      "inputs": [
        {
          "internalType": "uint256",
          "name": "_upc",
          "type": "uint256"
        }
      ],
      "name": "purchaseItem",
      "outputs": [],
      "stateMutability": "nonpayable",
      "type": "function"
    },
    {
      "inputs": [
        {
          "internalType": "uint256",
          "name": "_upc",
          "type": "uint256"
        }
      ],
      "name": "fetchItem",
      "outputs": [
        {
          "internalType": "uint256",
          "name": "UPC",
          "type": "uint256"
        },
        {
          "internalType": "address",
          "name": "owner",
          "type": "address"
        },
        {
          "internalType": "uint256",
          "name": "price",
          "type": "uint256"
        },
        {
          "internalType": "uint256",
          "name": "state",
          "type": "uint256"
        },
        {
          "internalType": "address",
          "name": "manufacturerID",
          "type": "address"
        },
        {
          "internalType": "string",
          "name": "name",
          "type": "string"
        },
        {
          "internalType": "string",
          "name": "description",
          "type": "string"
        },
        {
          "internalType": "address",
          "name": "distributorID",
          "type": "address"
        },
        {
          "internalType": "address",
          "name": "retailerID",
          "type": "address"
        },
        {
          "internalType": "address",
          "name": "consumerID",
          "type": "address"
        }
      ],
      "stateMutability": "view",
      "type": "function",
      "constant": true
    }
  ],
  "bytecode": "0x60806040819052600080546001600160a01b03191633178082556001600160a01b0316917f5c486528ec3e3f0ea91181cff8116f02bfa350e03b8b6f12e00765adbb5af85c908290a362000053336200007f565b6200005e33620000d6565b620000693362000128565b62000074336200017a565b600160055562000266565b6200009a816001620001cc60201b6200108d1790919060201c565b7f28b26e7a3d20aedbc5f8f2ebf7da671c0491723a2b78f47a097b0e46dee0714281604051620000cb919062000252565b60405180910390a150565b620000f1816002620001cc60201b6200108d1790919060201c565b6040516001600160a01b038216907fddbf200aa634dc3fb81cfd68583dd1040d1c751d335e1d86b631bde3e977fea890600090a250565b62000143816003620001cc60201b6200108d1790919060201c565b6040516001600160a01b038216907f561138658ca49a8540dc70dcfe64c9026c1c5b9344642242dd6562970f9c127890600090a250565b62000195816004620001cc60201b6200108d1790919060201c565b6040516001600160a01b038216907f71ae26cad02663e3d92efd6ec56031a80d74a20c0ab4183faa8bf262261c9baa90600090a250565b6001600160a01b038116620001e057600080fd5b620001ec82826200021c565b15620001f757600080fd5b6001600160a01b0316600090815260209190915260409020805460ff19166001179055565b60006001600160a01b0382166200023257600080fd5b506001600160a01b03166000908152602091909152604090205460ff1690565b6001600160a01b0391909116815260200190565b611a1480620002766000396000f3fe6080604052600436106101665760003560e01c80638ec4f505116100d1578063d38ea5bf1161008a578063e7fb74c711610064578063e7fb74c7146103ee578063f2fde38b14610401578063f30fc48014610421578063f61c899a1461044157610166565b8063d38ea5bf146103a4578063db0e6a2f146103c4578063de07f34e146103d957610166565b80638ec4f505146102d95780638f0c86fa146102f95780638f32d59b14610319578063a26be9991461032e578063ad4b9cfb1461034e578063cb0237b71461038457610166565b806361e6982d1161012357806361e6982d14610238578063644241db1461024d578063715018a6146102625780637250e22414610277578063834ff739146102975780638da5cb5b146102b757610166565b8063112940f91461016b57806317d4a4911461018d5780632d923561146101c357806341c0e1b5146101e35780635da09b88146101f85780635f8a5afa14610218575b600080fd5b34801561017757600080fd5b5061018b6101863660046114e9565b610461565b005b34801561019957600080fd5b506101ad6101a83660046114e9565b61049b565b6040516101ba9190611621565b60405180910390f35b3480156101cf57600080fd5b5061018b6101de3660046115a1565b6104ae565b3480156101ef57600080fd5b5061018b610598565b34801561020457600080fd5b506101ad6102133660046114e9565b6105d3565b34801561022457600080fd5b5061018b6102333660046114e9565b6105e0565b34801561024457600080fd5b5061018b61061b565b34801561025957600080fd5b5061018b610624565b34801561026e57600080fd5b5061018b61062d565b34801561028357600080fd5b5061018b6102923660046114e9565b610688565b3480156102a357600080fd5b506101ad6102b23660046114e9565b6106b6565b3480156102c357600080fd5b506102cc6106c3565b6040516101ba919061160d565b3480156102e557600080fd5b5061018b6102f43660046114e9565b6106d2565b34801561030557600080fd5b506101ad6103143660046114e9565b610700565b34801561032557600080fd5b506101ad61070d565b34801561033a57600080fd5b5061018b610349366004611517565b61071e565b34801561035a57600080fd5b5061036e610369366004611517565b61081d565b6040516101ba9a999897969594939291906118f2565b34801561039057600080fd5b5061018b61039f36600461152f565b610a19565b3480156103b057600080fd5b5061018b6103bf366004611517565b610bd6565b3480156103d057600080fd5b5061018b610cc9565b3480156103e557600080fd5b5061018b610cd2565b61018b6103fc366004611517565b610cdb565b34801561040d57600080fd5b5061018b61041c3660046114e9565b610ebd565b34801561042d57600080fd5b5061018b61043c366004611517565b610ed7565b34801561044d57600080fd5b5061018b61045c366004611517565b610fb8565b61046a336106b6565b61048f5760405162461bcd60e51b81526004016104869061186c565b60405180910390fd5b610498816110d9565b50565b60006104a860038361111e565b92915050565b816001600082815260066020819052604090912060040154600160a01b900460ff16908111156104ee57634e487b7160e01b600052602160045260246000fd5b1461050b5760405162461bcd60e51b8152600401610486906117aa565b336105153361049b565b6105315760405162461bcd60e51b815260040161048690611729565b6000848152600660205260409081902060048101805460ff60a01b1916600160a11b179055600301849055517fa96ae0fc3224ebd79eebfe54bd130cc9cb94416cddd1f2386115e00b725324689061058a9086906118e9565b60405180910390a150505050565b6105a061070d565b156105d15760405133904780156108fc02916000818181858888f19350505050158015610498573d6000803e3d6000fd5b565b60006104a860048361111e565b6105e93361049b565b6106055760405162461bcd60e51b815260040161048690611729565b61060e8161049b565b6104985761049881611153565b6105d133611195565b6105d1336111cf565b61063561070d565b61063e57600080fd5b600080546040516001600160a01b03909116907f5c486528ec3e3f0ea91181cff8116f02bfa350e03b8b6f12e00765adbb5af85c908390a3600080546001600160a01b0319169055565b61069133610700565b6106ad5760405162461bcd60e51b81526004016104869061162c565b61049881611211565b60006104a860018361111e565b6000546001600160a01b031690565b6106db336105d3565b6106f75760405162461bcd60e51b8152600401610486906116e3565b61049881611253565b60006104a860028361111e565b6000546001600160a01b0316331490565b806004600082815260066020819052604090912060040154600160a01b900460ff169081111561075e57634e487b7160e01b600052602160045260246000fd5b1461077b5760405162461bcd60e51b815260040161048690611773565b610784336105d3565b6107a05760405162461bcd60e51b8152600401610486906116e3565b600082815260066020526040908190206004810180546001600160a01b03199081163390811760ff60a01b1916600560a01b1790925560079092018054909216179055517fa8142743f8f70a4c26f3691cf4ed59718381fb2f18070ec52be1f1022d855557906108119084906118e9565b60405180910390a15050565b600081815260066020819052604082208054600482015460039092015490936001600160a01b038316939192909182916060918291849182918291600160a01b90910460ff169081111561088157634e487b7160e01b600052602160045260246000fd5b60008c81526006602052604090206005810154600190910180549299506001600160a01b039091169750906108b59061198d565b80601f01602080910402602001604051908101604052809291908181526020018280546108e19061198d565b801561092e5780601f106109035761010080835404028352916020019161092e565b820191906000526020600020905b81548152906001019060200180831161091157829003601f168201915b50505060008e81526006602052604090206002018054939850926109549250905061198d565b80601f01602080910402602001604051908101604052809291908181526020018280546109809061198d565b80156109cd5780601f106109a2576101008083540402835291602001916109cd565b820191906000526020600020905b8154815290600101906020018083116109b057829003601f168201915b50505060009d8e525050600660208190526040909c209b8c015460078d01546008909d01549b9d9a9c999b989a9799969891976001600160a01b03918216978216965091169350915050565b610a223361049b565b610a3e5760405162461bcd60e51b815260040161048690611729565b60408051610140810182528581526020808201868152828401869052606083018590523360808401819052600060a0850181905260c085019190915260e084018190526101008401819052610120840181905288815260068352939093208251815592518051929392610ab792600185019201906113cf565b5060408201518051610ad39160028401916020909101906113cf565b506060820151600382015560808201516004820180546001600160a01b0319166001600160a01b039092169190911780825560a0840151919060ff60a01b1916600160a01b836006811115610b3857634e487b7160e01b600052602160045260246000fd5b021790555060c08201516005820180546001600160a01b03199081166001600160a01b039384161790915560e084015160068401805483169184169190911790556101008401516007840180548316918416919091179055610120909301516008909201805490931691161790556040517fd29d8a68ca7c8c74be5579719d445aabfe230ed6e6a83aff475a663500eb76099061058a9086906118e9565b806005600082815260066020819052604090912060040154600160a01b900460ff1690811115610c1657634e487b7160e01b600052602160045260246000fd5b14610c335760405162461bcd60e51b8152600401610486906116ac565b610c3c336106b6565b610c585760405162461bcd60e51b81526004016104869061186c565b600082815260066020526040908190206004810180546001600160a01b03199081163390811760ff60a01b1916600360a11b1790925560089092018054909216179055517f653d56639fee6b566a5c804764e9689de38645f0b733df89a36a1b7b42173dd8906108119084906118e9565b6105d133611295565b6105d1336112d7565b806002600082815260066020819052604090912060040154600160a01b900460ff1690811115610d1b57634e487b7160e01b600052602160045260246000fd5b14610d385760405162461bcd60e51b8152600401610486906118b2565b60008281526006602052604090206003015434811115610d6a5760405162461bcd60e51b8152600401610486906117e1565b82610d7433610700565b610d905760405162461bcd60e51b81526004016104869061162c565b60008481526006602081905260408083206004810180546001600160a01b03199081163390811760ff60a01b1916600360a01b179092559382018054909416179092556003820154600590920154905191926001600160a01b039091169183156108fc0291849190818181858888f19350505050158015610e15573d6000803e3d6000fd5b507f92f64ca637d023f354075a4be751b169c1a8a9ccb6d33cdd0cb352054399572785604051610e4591906118e9565b60405180910390a15060008181526006602052604081206003015490610e6b823461196a565b6000848152600660205260408082206008015490519293506001600160a01b03169183156108fc0291849190818181858888f19350505050158015610eb4573d6000803e3d6000fd5b50505050505050565b610ec561070d565b610ece57600080fd5b61049881611319565b8060008082815260066020819052604090912060040154600160a01b900460ff1690811115610f1657634e487b7160e01b600052602160045260246000fd5b14610f335760405162461bcd60e51b81526004016104869061182b565b33610f3d3361049b565b610f595760405162461bcd60e51b815260040161048690611729565b60008381526006602052604090819020600401805460ff60a01b1916600160a01b179055517f9b3b66e2380b690bae22c73ef1428fb0c91e72fe14a4b6defa13035214187aff90610fab9085906118e9565b60405180910390a1505050565b806003600082815260066020819052604090912060040154600160a01b900460ff1690811115610ff857634e487b7160e01b600052602160045260246000fd5b146110155760405162461bcd60e51b815260040161048690611675565b3361101f33610700565b61103b5760405162461bcd60e51b81526004016104869061162c565b60008381526006602052604090819020600401805460ff60a01b1916600160a21b179055517ff00b9a5725b80c54016f42114f6ed7792d22eecb116011c4afac29c57bef6c9590610fab9085906118e9565b6001600160a01b0381166110a057600080fd5b6110aa828261111e565b156110b457600080fd5b6001600160a01b0316600090815260209190915260409020805460ff19166001179055565b6110e460018261108d565b7f28b26e7a3d20aedbc5f8f2ebf7da671c0491723a2b78f47a097b0e46dee0714281604051611113919061160d565b60405180910390a150565b60006001600160a01b03821661113357600080fd5b506001600160a01b03166000908152602091909152604090205460ff1690565b61115e60038261108d565b6040516001600160a01b038216907f561138658ca49a8540dc70dcfe64c9026c1c5b9344642242dd6562970f9c127890600090a250565b6111a0600182611387565b7fe3f5ed5f263f1f01764a96edfc7d025f511ec5f7d180e8816908b78bcf74f09881604051611113919061160d565b6111da600282611387565b6040516001600160a01b038216907f126174f6cf49c81cdb4a9214c6b8f037bef55b4ec31e4fc776cea2a1c8a88d5990600090a250565b61121c60028261108d565b6040516001600160a01b038216907fddbf200aa634dc3fb81cfd68583dd1040d1c751d335e1d86b631bde3e977fea890600090a250565b61125e60048261108d565b6040516001600160a01b038216907f71ae26cad02663e3d92efd6ec56031a80d74a20c0ab4183faa8bf262261c9baa90600090a250565b6112a0600482611387565b6040516001600160a01b038216907fdb7176e79cffef81cb01767dd0447a0b24bb72ca9778d4b245581086b2a7e6db90600090a250565b6112e2600382611387565b6040516001600160a01b038216907f2fed5abf6a80d6dfe30b4895481b2fc5d7dce5f8f7b931832f4a2947d5040c7f90600090a250565b6001600160a01b03811661132c57600080fd5b600080546040516001600160a01b03808516939216917f5c486528ec3e3f0ea91181cff8116f02bfa350e03b8b6f12e00765adbb5af85c91a3600080546001600160a01b0319166001600160a01b0392909216919091179055565b6001600160a01b03811661139a57600080fd5b6113a4828261111e565b6113ad57600080fd5b6001600160a01b0316600090815260209190915260409020805460ff19169055565b8280546113db9061198d565b90600052602060002090601f0160209004810192826113fd5760008555611443565b82601f1061141657805160ff1916838001178555611443565b82800160010185558215611443579182015b82811115611443578251825591602001919060010190611428565b5061144f929150611453565b5090565b5b8082111561144f5760008155600101611454565b600082601f830112611478578081fd5b813567ffffffffffffffff80821115611493576114936119c8565b604051601f8301601f1916810160200182811182821017156114b7576114b76119c8565b6040528281528483016020018610156114ce578384fd5b82602086016020830137918201602001929092529392505050565b6000602082840312156114fa578081fd5b81356001600160a01b0381168114611510578182fd5b9392505050565b600060208284031215611528578081fd5b5035919050565b60008060008060808587031215611544578283fd5b84359350602085013567ffffffffffffffff80821115611562578485fd5b61156e88838901611468565b94506040870135915080821115611583578384fd5b5061159087828801611468565b949793965093946060013593505050565b600080604083850312156115b3578182fd5b50508035926020909101359150565b60008151808452815b818110156115e7576020818501810151868301820152016115cb565b818111156115f85782602083870101525b50601f01601f19169290920160200192915050565b6001600160a01b0391909116815260200190565b901515815260200190565b60208082526029908201527f53656e64657220646f65736e27742068617665207468652064697374726962756040820152683a37b9103937b6329760b91b606082015260800190565b60208082526019908201527f50726f64756374206861736e2774206265656e20736f6c642e00000000000000604082015260600190565b6020808252601d908201527f50726f64756374206861736e2774206265656e2072656365697665642e000000604082015260600190565b60208082526026908201527f53656e64657220646f65736e27742068617665207468652072657461696c6572604082015265103937b6329760d11b606082015260800190565b6020808252602a908201527f53656e64657220646f65736e2774206861766520746865206d616e75666163746040820152693ab932b9103937b6329760b11b606082015260800190565b6020808252601c908201527f50726f64756374206861736e2774206265656e20736869707065642e00000000604082015260600190565b6020808252601b908201527f50726f64756374206861736e2774206265656e207061636b65642e0000000000604082015260600190565b6020808252602a908201527f5061696420616d6f756e7420697320696e73756666696369656e7420666f72206040820152693a343290383934b1b29760b11b606082015260800190565b60208082526021908201527f50726f64756374206861736e2774206265656e206d616e7566616374757265646040820152601760f91b606082015260800190565b60208082526026908201527f53656e64657220646f65736e277420686176652074686520636f6e73756d6572604082015265103937b6329760d11b606082015260800190565b6020808252601b908201527f50726f647563742069736e277420666f722073616c65207965742e0000000000604082015260600190565b90815260200190565b60006101408c835260018060a01b03808d1660208501528b60408501528a6060850152808a1660808501528160a085015261192f8285018a6115c2565b915083820360c085015261194382896115c2565b96811660e08501529485166101008401525050911661012090910152979650505050505050565b60008282101561198857634e487b7160e01b81526011600452602481fd5b500390565b6002810460018216806119a157607f821691505b602082108114156119c257634e487b7160e01b600052602260045260246000fd5b50919050565b634e487b7160e01b600052604160045260246000fdfea2646970667358221220a4d1405aa1b7eb10c364476815b2b701a30a1fe7bf9990f29936c4c4fc84180164736f6c63430008000033",
  "immutableReferences": {},
  "source": "// SPDX-License-Identifier: UNLICENSED\npragma solidity >=0.4.22 <0.9.0;\n\nimport \"./Ownable.sol\";\nimport \"./roles/Consumer.sol\";\nimport \"./roles/Distributor.sol\";\nimport \"./roles/Manufacturer.sol\";\nimport \"./roles/Retailer.sol\";\n\ncontract SupplyChain is Ownable, Consumer, Distributor, Manufacturer, Retailer {\n    uint256 upc;\n\n    enum State {\n        Manufactured,\n        Packed,\n        ForSale,\n        Sold,\n        Shipped,\n        Received,\n        Purchased\n    }\n\n    State constant defaultState = State.Manufactured;\n\n    struct Item {\n        uint256 upc;\n        string name;\n        string description;\n        uint256 price;\n        address ownerID;\n        State itemState;\n        address manufacturerID;\n        address distributorID;\n        address retailerID;\n        address consumerID;\n    }\n\n    mapping(uint256 => Item) items;\n\n    event Manufactured(uint256 upc);\n    event Packed(uint256 upc);\n    event ForSale(uint256 upc);\n    event Sold(uint256 upc);\n    event Shipped(uint256 upc);\n    event Received(uint256 upc);\n    event Purchased(uint256 upc);\n\n    constructor() payable {\n        upc = 1;\n    }\n\n    function kill() public {\n        if (isOwner()) payable(msg.sender).transfer(address(this).balance);\n    }\n\n    function manufactureItem(\n        uint256 _upc,\n        string memory _name,\n        string memory _description,\n        uint256 _price\n    ) public onlyManufacturer {\n        items[_upc] = Item({\n            upc: _upc,\n            name: _name,\n            description: _description,\n            price: _price,\n            ownerID: msg.sender,\n            itemState: State.Manufactured,\n            manufacturerID: msg.sender,\n            distributorID: address(0),\n            retailerID: address(0),\n            consumerID: address(0)\n        });\n\n        emit Manufactured(_upc);\n    }\n\n    function packItem(uint256 _upc)\n        public\n        manufactured(_upc)\n        verifyCaller(msg.sender)\n        onlyManufacturer\n    {\n        items[_upc].itemState = State.Packed;\n\n        emit Packed(_upc);\n    }\n\n    function sellItem(uint256 _upc, uint256 _price)\n        public\n        packed(_upc)\n        verifyCaller(msg.sender)\n        onlyManufacturer\n    {\n        items[_upc].itemState = State.ForSale;\n        items[_upc].price = _price;\n\n        emit ForSale(_upc);\n    }\n\n    function buyItem(uint256 _upc)\n        public\n        payable\n        forSale(_upc)\n        paidEnough(items[_upc].price)\n        checkValue(_upc)\n        onlyDistributor\n    {\n        items[_upc].ownerID = msg.sender;\n        items[_upc].itemState = State.Sold;\n        items[_upc].distributorID = msg.sender;\n\n        uint256 price = items[_upc].price;\n        payable(items[_upc].manufacturerID).transfer(price);\n\n        emit Sold(_upc);\n    }\n\n    function shipItem(uint256 _upc)\n        public\n        sold(_upc)\n        verifyCaller(msg.sender)\n        onlyDistributor\n    {\n        items[_upc].itemState = State.Shipped;\n\n        emit Shipped(_upc);\n    }\n\n    function receiveItem(uint256 _upc) public shipped(_upc) onlyRetailer {\n        items[_upc].ownerID = msg.sender;\n        items[_upc].itemState = State.Received;\n        items[_upc].retailerID = msg.sender;\n\n        emit Received(_upc);\n    }\n\n    function purchaseItem(uint256 _upc) public received(_upc) onlyConsumer {\n        items[_upc].ownerID = msg.sender;\n        items[_upc].itemState = State.Purchased;\n        items[_upc].consumerID = msg.sender;\n\n        emit Purchased(_upc);\n    }\n\n    function fetchItem(uint256 _upc)\n        public\n        view\n        returns (\n            uint256 UPC,\n            address owner,\n            uint256 price,\n            uint256 state,\n            address manufacturerID,\n            string memory name,\n            string memory description,\n            address distributorID,\n            address retailerID,\n            address consumerID\n        )\n    {\n        UPC = items[_upc].upc;\n        owner = items[_upc].ownerID;\n        price = items[_upc].price;\n        state = uint256(items[_upc].itemState);\n        manufacturerID = items[_upc].manufacturerID;\n        name = items[_upc].name;\n        description = items[_upc].description;\n        distributorID = items[_upc].distributorID;\n        retailerID = items[_upc].retailerID;\n        consumerID = items[_upc].consumerID;\n\n        return (\n            UPC,\n            owner,\n            price,\n            state,\n            manufacturerID,\n            name,\n            description,\n            distributorID,\n            retailerID,\n            consumerID\n        );\n    }\n\n    /*\n     * Modifiers\n     */\n\n    modifier paidEnough(uint256 _price) {\n        require(\n            msg.value >= _price,\n            \"Paid amount is insufficient for the price.\"\n        );\n        _;\n    }\n\n    modifier checkValue(uint256 _upc) {\n        _;\n        uint256 _price = items[_upc].price;\n        uint256 amountToReturn = msg.value - _price;\n        payable(items[_upc].consumerID).transfer(amountToReturn);\n    }\n\n    modifier verifyCaller(address _address) {\n        require(\n            msg.sender == _address,\n            \"Sender is not the caller of the contract.\"\n        );\n        _;\n    }\n\n    modifier manufactured(uint256 _upc) {\n        require(\n            items[_upc].itemState == State.Manufactured,\n            \"Product hasn't been manufactured.\"\n        );\n        _;\n    }\n\n    modifier packed(uint256 _upc) {\n        require(\n            items[_upc].itemState == State.Packed,\n            \"Product hasn't been packed.\"\n        );\n        _;\n    }\n\n    modifier forSale(uint256 _upc) {\n        require(\n            items[_upc].itemState == State.ForSale,\n            \"Product isn't for sale yet.\"\n        );\n        _;\n    }\n\n    modifier sold(uint256 _upc) {\n        require(\n            items[_upc].itemState == State.Sold,\n            \"Product hasn't been sold.\"\n        );\n        _;\n    }\n\n    modifier shipped(uint256 _upc) {\n        require(\n            items[_upc].itemState == State.Shipped,\n            \"Product hasn't been shipped.\"\n        );\n        _;\n    }\n\n    modifier received(uint256 _upc) {\n        require(\n            items[_upc].itemState == State.Received,\n            \"Product hasn't been received.\"\n        );\n        _;\n    }\n\n    modifier purchased(uint256 _upc) {\n        require(\n            items[_upc].itemState == State.Purchased,\n            \"Product hasn't been purchased.\"\n        );\n        _;\n    }\n}",
  "sourcePath": "/Users/avinashbejjam/Desktop/MU_Sem/4_1/Crypto/Project/DApp-Supply-Chain/contracts/SupplyChain.sol",
  "compiler": {
    "name": "solc",
    "version": "0.8.0+commit.c7dfd78e.Emscripten.clang"
  },
  "schemaVersion": "3.4.16",
  "updatedAt": "2024-12-02T19:33:34.313Z",
  "networkType": "ethereum",
  "devdoc": {
    "kind": "dev",
    "methods": {},
    "version": 1
  },
  "userdoc": {
    "kind": "user",
    "methods": {},
    "version": 1
  }
}